{
  "_format": "hh-sol-artifact-1",
  "contractName": "LotteryContract",
  "sourceName": "contracts/LotteryContract.sol",
  "abi": [
    {
      "inputs": [],
      "stateMutability": "nonpayable",
      "type": "constructor"
    },
    {
      "anonymous": false,
      "inputs": [
        {
          "indexed": true,
          "internalType": "address",
          "name": "winnerAddress",
          "type": "address"
        }
      ],
      "name": "Winner",
      "type": "event"
    },
    {
      "stateMutability": "nonpayable",
      "type": "fallback"
    },
    {
      "inputs": [],
      "name": "GetWinner",
      "outputs": [],
      "stateMutability": "nonpayable",
      "type": "function"
    },
    {
      "inputs": [],
      "name": "PrizePool",
      "outputs": [
        {
          "internalType": "uint256",
          "name": "",
          "type": "uint256"
        }
      ],
      "stateMutability": "nonpayable",
      "type": "function"
    },
    {
      "inputs": [],
      "name": "buyTicket",
      "outputs": [],
      "stateMutability": "payable",
      "type": "function"
    },
    {
      "inputs": [],
      "name": "eventEnded",
      "outputs": [
        {
          "internalType": "bool",
          "name": "",
          "type": "bool"
        }
      ],
      "stateMutability": "view",
      "type": "function"
    },
    {
      "inputs": [],
      "name": "owner",
      "outputs": [
        {
          "internalType": "address payable",
          "name": "",
          "type": "address"
        }
      ],
      "stateMutability": "view",
      "type": "function"
    },
    {
      "inputs": [],
      "name": "participantsCount",
      "outputs": [
        {
          "internalType": "uint256",
          "name": "",
          "type": "uint256"
        }
      ],
      "stateMutability": "view",
      "type": "function"
    },
    {
      "inputs": [],
      "name": "winnerDecided",
      "outputs": [
        {
          "internalType": "bool",
          "name": "",
          "type": "bool"
        }
      ],
      "stateMutability": "view",
      "type": "function"
    },
    {
      "inputs": [],
      "name": "withdrawRest",
      "outputs": [],
      "stateMutability": "nonpayable",
      "type": "function"
    }
  ],
  "bytecode": "0x608060405260008060146101000a81548160ff02191690831515021790555060008060156101000a81548160ff021916908315150217905550670de0b6b3a764000060025534801561005057600080fd5b50336000806101000a81548173ffffffffffffffffffffffffffffffffffffffff021916908373ffffffffffffffffffffffffffffffffffffffff160217905550610f56806100a06000396000f3fe60806040526004361061007f5760003560e01c8063dd60c8981161004e578063dd60c89814610160578063edca914c1461018b578063ef66016914610195578063f57e63e2146101ac57610080565b80630d7cffb0146100c85780633f0b0828146100f35780638da5cb5b1461011e5780639f6c4e6c1461014957610080565b5b34801561008c57600080fd5b506040517f08c379a00000000000000000000000000000000000000000000000000000000081526004016100bf9061085c565b60405180910390fd5b3480156100d457600080fd5b506100dd6101d7565b6040516100ea9190610895565b60405180910390f35b3480156100ff57600080fd5b506101086101df565b60405161011591906108cb565b60405180910390f35b34801561012a57600080fd5b506101336101f2565b6040516101409190610927565b60405180910390f35b34801561015557600080fd5b5061015e610216565b005b34801561016c57600080fd5b506101756104be565b6040516101829190610895565b60405180910390f35b6101936104cb565b005b3480156101a157600080fd5b506101aa6105d7565b005b3480156101b857600080fd5b506101c16107ae565b6040516101ce91906108cb565b60405180910390f35b600047905090565b600060159054906101000a900460ff1681565b60008054906101000a900473ffffffffffffffffffffffffffffffffffffffff1681565b60008054906101000a900473ffffffffffffffffffffffffffffffffffffffff1673ffffffffffffffffffffffffffffffffffffffff163373ffffffffffffffffffffffffffffffffffffffff16146102a4576040517f08c379a000000000000000000000000000000000000000000000000000000000815260040161029b9061098e565b60405180910390fd5b600060159054906101000a900460ff16156102f4576040517f08c379a00000000000000000000000000000000000000000000000000000000081526004016102eb906109fa565b60405180910390fd5b60006001805490501161033c576040517f08c379a000000000000000000000000000000000000000000000000000000000815260040161033390610a66565b60405180910390fd5b60004442600160405160200161035493929190610bd7565b6040516020818303038152906040528051906020012060001c90506000600180549050826103829190610c3f565b905060006001828154811061039a57610399610c70565b5b9060005260206000200160009054906101000a900473ffffffffffffffffffffffffffffffffffffffff169050600047905060006064605a836103dd9190610cce565b6103e79190610d10565b90508273ffffffffffffffffffffffffffffffffffffffff166108fc829081150290604051600060405180830381858888f1935050505015801561042f573d6000803e3d6000fd5b506001600060156101000a81548160ff0219169083151502179055506001600060146101000a81548160ff0219169083151502179055508273ffffffffffffffffffffffffffffffffffffffff167f745c90b656b4aafe296c8ca35aeacfe56cb96c90e1d320e5da643fff1051b6c060405160405180910390a2600160006104b791906107c1565b5050505050565b6000600180549050905090565b600060149054906101000a900460ff161561051b576040517f08c379a000000000000000000000000000000000000000000000000000000000815260040161051290610d8d565b60405180910390fd5b600254341015610560576040517f08c379a000000000000000000000000000000000000000000000000000000000815260040161055790610df9565b60405180910390fd5b600254341461057257610571610e19565b5b6001339080600181540180825580915050600190039060005260206000200160009091909190916101000a81548173ffffffffffffffffffffffffffffffffffffffff021916908373ffffffffffffffffffffffffffffffffffffffff160217905550565b60008054906101000a900473ffffffffffffffffffffffffffffffffffffffff1673ffffffffffffffffffffffffffffffffffffffff163373ffffffffffffffffffffffffffffffffffffffff1614610665576040517f08c379a000000000000000000000000000000000000000000000000000000000815260040161065c9061098e565b60405180910390fd5b60011515600060159054906101000a900460ff161515146106bb576040517f08c379a00000000000000000000000000000000000000000000000000000000081526004016106b290610e94565b60405180910390fd5b60011515600060149054906101000a900460ff16151514610711576040517f08c379a000000000000000000000000000000000000000000000000000000000815260040161070890610f00565b60405180910390fd5b60008054906101000a900473ffffffffffffffffffffffffffffffffffffffff1673ffffffffffffffffffffffffffffffffffffffff166108fc479081150290604051600060405180830381858888f19350505050158015610777573d6000803e3d6000fd5b5060008060146101000a81548160ff02191690831515021790555060008060156101000a81548160ff021916908315150217905550565b600060149054906101000a900460ff1681565b50805460008255906000526020600020908101906107df91906107e2565b50565b5b808211156107fb5760008160009055506001016107e3565b5090565b600082825260208201905092915050565b7f43616e6e6f7420657863657074206574686572206469726563746c7900000000600082015250565b6000610846601c836107ff565b915061085182610810565b602082019050919050565b6000602082019050818103600083015261087581610839565b9050919050565b6000819050919050565b61088f8161087c565b82525050565b60006020820190506108aa6000830184610886565b92915050565b60008115159050919050565b6108c5816108b0565b82525050565b60006020820190506108e060008301846108bc565b92915050565b600073ffffffffffffffffffffffffffffffffffffffff82169050919050565b6000610911826108e6565b9050919050565b61092181610906565b82525050565b600060208201905061093c6000830184610918565b92915050565b7f4e6f74206f776e6572206f6620636f6e74726163740000000000000000000000600082015250565b60006109786015836107ff565b915061098382610942565b602082019050919050565b600060208201905081810360008301526109a78161096b565b9050919050565b7f57696e6e65722068617320616c7265616479206265656e206465636964656400600082015250565b60006109e4601f836107ff565b91506109ef826109ae565b602082019050919050565b60006020820190508181036000830152610a13816109d7565b9050919050565b7f4e6f207061727469636970616e747320696e20746865206c6f74746572790000600082015250565b6000610a50601e836107ff565b9150610a5b82610a1a565b602082019050919050565b60006020820190508181036000830152610a7f81610a43565b9050919050565b6000819050919050565b610aa1610a9c8261087c565b610a86565b82525050565b600081549050919050565b600081905092915050565b60008190508160005260206000209050919050565b6000610add826108e6565b9050919050565b610aed81610ad2565b82525050565b6000610aff8383610ae4565b60208301905092915050565b60008160001c9050919050565b600073ffffffffffffffffffffffffffffffffffffffff82169050919050565b6000610b4b610b4683610b0b565b610b18565b9050919050565b6000610b5e8254610b38565b9050919050565b6000600182019050919050565b6000610b7d82610aa7565b610b878185610ab2565b9350610b9283610abd565b8060005b83811015610bca57610ba782610b52565b610bb18882610af3565b9750610bbc83610b65565b925050600181019050610b96565b5085935050505092915050565b6000610be38286610a90565b602082019150610bf38285610a90565b602082019150610c038284610b72565b9150819050949350505050565b7f4e487b7100000000000000000000000000000000000000000000000000000000600052601260045260246000fd5b6000610c4a8261087c565b9150610c558361087c565b925082610c6557610c64610c10565b5b828206905092915050565b7f4e487b7100000000000000000000000000000000000000000000000000000000600052603260045260246000fd5b7f4e487b7100000000000000000000000000000000000000000000000000000000600052601160045260246000fd5b6000610cd98261087c565b9150610ce48361087c565b9250828202610cf28161087c565b91508282048414831517610d0957610d08610c9f565b5b5092915050565b6000610d1b8261087c565b9150610d268361087c565b925082610d3657610d35610c10565b5b828204905092915050565b7f4576656e74656e64656400000000000000000000000000000000000000000000600082015250565b6000610d77600a836107ff565b9150610d8282610d41565b602082019050919050565b60006020820190508181036000830152610da681610d6a565b9050919050565b7f4e6f7420656e6f75676820657468657200000000000000000000000000000000600082015250565b6000610de36010836107ff565b9150610dee82610dad565b602082019050919050565b60006020820190508181036000830152610e1281610dd6565b9050919050565b7f4e487b7100000000000000000000000000000000000000000000000000000000600052600160045260246000fd5b7f77696e6e6572206e6f7420646563696465640000000000000000000000000000600082015250565b6000610e7e6012836107ff565b9150610e8982610e48565b602082019050919050565b60006020820190508181036000830152610ead81610e71565b9050919050565b7f4576656e74206e6f7420656e6465640000000000000000000000000000000000600082015250565b6000610eea600f836107ff565b9150610ef582610eb4565b602082019050919050565b60006020820190508181036000830152610f1981610edd565b905091905056fea2646970667358221220d0c36e5f367690c7fa11bcd99e21b3362caa57fa1258c65ebe214380d400cc4b64736f6c63430008180033",
  "linkReferences": {},
  "deployedLinkReferences": {}
}